:1000000014C02EC02DC02CC02BC02AC029C026C1B0
:1000100027C026C025C024C023C069C021C072C02B
:100020007BC01EC01DC01CC01BC011241FBECFE55D
:10003000D1E0DEBFCDBF10E0A0E6B0E0E0E2F9E045
:1000400002C005900D92A636B107D9F710E0A6E6DA
:10005000B0E001C01D92A037B107E1F702D05EC445
:10006000CFCF95D0E5D07894B4993EC080E0D9D078
:10007000D0D0823461F48091600090916100892F2A
:100080009FD0CAD080916000909161002AC08635CF
:1000900061F480916C0090916D00892F91D0BCD05B
:1000A00080916C0090916D001CC0813461F480914E
:1000B0006A0090916B00892F83D0AED080916A0046
:1000C00090916B000EC0883419F48091620009C0D1
:1000D0008D3419F48091630004C0833529F6809132
:1000E00064006ED099D0C0CF81E09BD0BDCF1F926D
:1000F0000F920FB60F921124689A0F900FBE0F90B7
:100100001F9018951F920F920FB60F9211240F9007
:100110000FBE0F901F9018951F920F920FB60F925F
:1001200011248F9380916E0080FF03C089B78E7F6A
:1001300089BF80E48EB980916E00826080936E00EA
:100140008FB180936F008F910F900FBE0F901F9013
:10015000189587B3806C87BBBD98C59A8AE58DB921
:1001600082E080BF83BF83E086BF80916E008160A4
:1001700080936E0080916E008D7F80936E008091E1
:100180006E008B7F80936E0010926F000895BE9A70
:10019000BD9888B3806A88BB88E58DB980916E0070
:1001A0008E7F80936E0080916E008D7F80936E00B5
:1001B00080916E008B7F80936E0010926F00089587
:1001C000282F8EB190E08F709070892B31F0809144
:1001D0006E00846080936E00089580916E008D7F24
:1001E00080936E0080916E008B7F80936E002FB99C
:1001F00080916E0080FF06C088B7816088BF89B794
:10020000816089BF80916E0086958695809581700A
:10021000089580916F00089580916E0081FFFCCF5A
:100220000895882311F4BE9A0895BE98C69808953B
:1002300012B883E389B988E18AB986E083B9579A0D
:1002400008955D9BFECF8CB908955F9BFECF8CB166
:10025000089501C08CB15F99FDCF08951F920F9250
:100260000FB60F9211240F932F933F934F935F93E9
:100270006F937F938F939F93AF93BF93EF93FF936E
:10028000DF93CF9300D0CDB7DEB75F9BFECF0CB12D
:10029000043221F410926600109269008091660089
:1002A000813029F4073419F083E58093660080914A
:1002B0006600823029F4003519F083E580936600EA
:1002C00080916600833079F4063511F486E003C02E
:1002D000073421F481E08093690005C01092690021
:1002E00083E580936600809166008430A9F404352C
:1002F00029F480916900863051F406C0073439F43E
:1003000080916900813019F48093690005C01092D2
:10031000690083E580936600809166008530A9F4CA
:10032000073429F480916900863051F406C0013405
:1003300039F480916900813019F48093690005C017
:100340001092690083E58093660080916600873093
:1003500089F580916900813079F4109268001092DB
:1003600067002091670030916800205E3140802F47
:1003700090E06AE070E011C0809169008630A9F4D5
:100380001092680010926700209167003091680019
:10039000802F90E0C09768EE73E095D2280F391F48
:1003A000309368002093670005C01092690083E5D0
:1003B0008093660080916600883089F5809169009D
:1003C000813091F48091670090916800C097800F10
:1003D000911D9093680080936700809167009091D1
:1003E0006800809362001BC080916900863091F4A0
:1003F0002091670030916800205C3241802F90E0AE
:1004000064E670E060D2280F391F309368002093B3
:10041000670005C01092690083E5809366008091B3
:100420006600893021F580916900813029F41092AD
:1004300068001092670004C080916900863091F4D2
:100440002091670030916800205E3140802F90E05D
:100450006AE070E038D2280F391F3093680020938B
:10046000670005C01092690083E580936600809163
:1004700066008A3021F580916900813091F4809185
:10048000670090916800C097800F911D909368005D
:10049000809367008091670090916800809363006B
:1004A0000EC080916900863029F40E3219F48093D1
:1004B000690005C01092690083E580936600809111
:1004C00066008B30B9F5809169008130B1F41092EB
:1004D0006800109267002091670030916800205EEC
:1004E0003140802F90E06AE070E0EDD1280F391F95
:1004F00030936800209367001DC0809169008630AA
:10050000A1F48091670090916800C097800F911DC1
:1005100090936800809367008091670090916800D5
:10052000909361008093600005C01092690083E59C
:1005300080936600809166008C30D9F480916900C8
:10054000813091F48091670090916800C097800F8E
:10055000911D90936800809367008091670090914F
:1005600068008093640005C01092690083E5809361
:100570006600809166008931F1F4809169008630CF
:10058000A9F41092680010926700209167003091E2
:100590006800802F90E0C09760E177E294D1280F47
:1005A000391F309368002093670005C010926900DE
:1005B00083E580936600809166008A31D1F4809152
:1005C0006900863089F42091670030916800802F9F
:1005D00090E0C09768EE73E076D1280F391F309312
:1005E00068002093670005C01092690083E580933E
:1005F0006600809166008B31D9F480916900863065
:1006000091F42091670030916800205C3241802F86
:1006100090E064E670E057D1280F391F30936800EE
:100620002093670005C01092690083E580936600FF
:10063000809166008C31D9F480916900863091F404
:100640002091670030916800205E3140802F90E05B
:100650006AE070E038D1280F391F3093680020938A
:10066000670005C01092690083E580936600809161
:1006700066008D3171F480916900863029F40E3264
:1006800019F48093690005C01092690083E5809396
:100690006600809166008E31E9F4809169008630B1
:1006A000A1F48091670090916800C097800F911D20
:1006B0009093680080936700809167009091680034
:1006C00090936D0080936C0005C01092690083E5E3
:1006D0008093660080916600833359F580916900AC
:1006E000813011F510926800109267000D3209F107
:1006F00020916700309168003A832983602F70E071
:1007000060537040882777FD8095982F20EA36E85F
:1007100041E050E0EAD0E981FA81E60FF71FF0935B
:100720006800E093670005C01092690083E580933C
:100730006600809166008433D1F480916900813035
:1007400089F42091670030916800802F90E0C09775
:1007500060E177E2B8D0280F391F3093680020930A
:10076000670005C01092690083E580936600809160
:1007700066008533D9F480916900813091F420912D
:10078000670030916800205C3241802F90E064E681
:1007900070E099D0280F391F3093680020936700CC
:1007A00005C01092690083E5809366008091660021
:1007B0008633D9F480916900813091F420916700EB
:1007C00030916800205C3241802F90E064E670E058
:1007D0007AD0280F391F309368002093670005C036
:1007E0001092690083E580936600809166008733EC
:1007F000D9F480916900813091F4209167003091A3
:100800006800205E3140802F90E06AE070E05BD0AD
:10081000280F391F309368002093670005C010929D
:10082000690083E58093660080916600883379F4DF
:1008300080916900813031F40E3221F486E080939A
:10084000690005C01092690083E58093660080917D
:1008500066008933E9F4809169008130A1F48091C8
:10086000670090916800C097800F911D9093680079
:1008700080936700809167009091680090936B006F
:1008800080936A0005C01092690083E5809366003A
:10089000809166008F5F809366000F900F90CF91DC
:1008A000DF91FF91EF91BF91AF919F918F917F91D8
:1008B0006F915F914F913F912F910F910F900FBECC
:1008C0000F901F9018955527002480FF02C0060E38
:1008D000571F660F771F6115710521F09695879553
:1008E000009799F7952F802D0895FF27EE27BB27B6
:1008F000AA2760FF04C0A20FB31FE41FF51F220F39
:10090000331F441F551F969587957795679589F7EF
:100910000097760771F7CF01BD010895F894FFCFD6
:0609200084090C1E2D00ED
:00000001FF
