:100000000C9434000C9449000C9449000C94490061
:100010000C9449000C9449000C9449000C9449003C
:100020000C9449000C9449000C9449000C9449002C
:100030000C9449000C9449000C9449000C9449001C
:100040000C9449000C9449000C9449000C9449000C
:100050000C9449000C9449000C9449000C944900FC
:100060000C9449000C94490011241FBECFEFD4E03A
:10007000DEBFCDBF11E0A0E0B1E0ECEFF2E002C0E6
:1000800005900D92AE30B107D9F70E944B000C9449
:100090007C010C940000CF92DF92EF92FF921F93AD
:1000A000CF93DF930E9466018FEF8AB95B9A5D9AC6
:1000B0005E9A5C9A5F9A78945B9888E50E946D01DD
:1000C00080E00E946D010E9477018093000189E524
:1000D0000E946D0180E00E946D010E947701809373
:1000E00001018AE50E946D0180E00E946D010E947D
:1000F0007701809302015B9A5E988CE40E946D0107
:1001000080E00E946D010E947701809304015E9A55
:100110005C9882E50E946D0180E00E946D010E9462
:100120007701809303015C9A5D9881E40E946D01E0
:1001300080E00E946D010E947701182F80E00E94EC
:100140006D010E947701D12ECC2490E08C219D215D
:10015000909306018093050186E50E946D0180E081
:100160000E946D010E947701182F80E00E946D01AE
:100170000E947701F12EEE2490E08E219F21909332
:1001800008018093070182E40E946D0180E00E94D3
:100190006D010E947701182F80E00E946D010E947E
:1001A0007701D12FC0E090E08C239D2390930A012A
:1001B0008093090188E40E946D0180E00E946D0136
:1001C0000E94770180930B018DE40E946D0180E015
:1001D0000E946D010E94770180930C0183E50E94CB
:1001E0006D0180E00E946D010E94770180930D01F6
:1001F0005D9A5F9888E70E946D01809100010E94DE
:100200006D0189E70E946D01809101010E946D01DD
:100210008AE70E946D01809102010E946D018CE6C7
:100220000E946D01809104010E946D0182E70E948D
:100230006D01809103010E946D0181E60E946D01B4
:100240008091050190910601892F990F990B0E94C9
:100250006D0180910501909106010E946D0186E774
:100260000E946D018091070190910801892F0E94E1
:100270006D0180910701909108010E946D0182E655
:100280000E946D018091090190910A01892F0E94BD
:100290006D018091090190910A010E946D0188E62B
:1002A0000E946D0180910B010E946D018DE60E94FC
:1002B0006D0180910C010E946D0183E70E946D0128
:1002C00080910D010E946D015F9AF6CE8CE284B997
:1002D00082E58CBD8DB58EB508958EBD0DB407FE3B
:1002E000FDCF089580E184B980EC8CBD08950DB4F4
:0C02F00007FEFDCF8EB50895F894FFCFF7
:0E02FC0002030405060700080009000A0B0CA7
:00000001FF
