:100000000C9434000C9449000C9449000C94490061
:100010000C9449000C9449000C9449000C9449003C
:100020000C9449000C9449000C9449000C9449002C
:100030000C9449000C9449000C9449000C9449001C
:100040000C9449000C9449000C9449000C9449000C
:100050000C9449000C9449000C9449000C944900FC
:100060000C9449000C94490011241FBECFEFD4E03A
:10007000DEBFCDBF11E0A0E0B1E0E8E0F4E002C0F7
:1000800005900D92AE30B107D9F70E944B000C9449
:1000900002020C9400000F931F93CF93DF930E94F2
:1000A000E9018FEF8AB95B9A5D9A5E9A5C9A5F9AD2
:1000B000789412E4CCE2D1E005E85B98812F8A9530
:1000C000F1F788E50E94F301812F8A95F1F780E02E
:1000D0000E94F301812F8A95F1F70E94FD01809320
:1000E000000189E50E94F301812F8A95F1F780E0F4
:1000F0000E94F301812F8A95F1F70E94FD01809300
:1001000001018AE50E94F301812F8A95F1F780E0D1
:100110000E94F301812F8A95F1F70E94FD018093DF
:1001200002015B9A5E98812F8A95F1F78CE40E9418
:10013000F301812F8A95F1F780E00E94F301812F6E
:100140008A95F1F70E94FD01809304015E9A5C9804
:10015000812F8A95F1F782E50E94F301CE01019784
:10016000F1F780E00E94F301812F8A95F1F70E9458
:10017000FD01809303015C9A5D98802F8A95F1F7C9
:1001800081E40E94F301802F8A95F1F780E00E94BC
:10019000F301802F8A95F1F70E94FD0180930501FC
:1001A00080E00E94F301802F8A95F1F70E94FD0103
:1001B0008093060186E50E94F301802F8A95F1F76E
:1001C00080E00E94F301802F8A95F1F70E94FD01E3
:1001D0008093070180E00E94F301802F8A95F1F758
:1001E0000E94FD018093080182E40E94F301802FA8
:1001F0008A95F1F780E00E94F301802F8A95F1F74C
:100200000E94FD018093090180E00E94F301802F8C
:100210008A95F1F70E94FD0180930A0188E40E940B
:10022000F301802F8A95F1F780E00E94F301802F7F
:100230008A95F1F70E94FD0180930B018DE40E94E5
:10024000F301802F8A95F1F780E00E94F301802F5F
:100250008A95F1F70E94FD0180930C0183E50E94CD
:10026000F301802F8A95F1F780E00E94F301802F3F
:100270008A95F1F70E94FD0180930D015D9A5F98C8
:10028000812F8A95F1F788E70E94F301812F8A95E3
:10029000F1F7809100010E94F301812F8A95F1F717
:1002A00089E70E94F301812F8A95F1F7809101017E
:1002B0000E94F301812F8A95F1F78AE70E94F301EA
:1002C000812F8A95F1F7809102010E94F301812F1D
:1002D0008A95F1F78CE60E94F301812F8A95F1F758
:1002E000809104010E94F301812F8A95F1F782E742
:1002F0000E94F301812F8A95F1F7809103010E94FA
:10030000F301812F8A95F1F781E60E94F301812F95
:100310008A95F1F7809105010E94F301812F8A955A
:10032000F1F7809106010E94F301812F8A95F1F780
:1003300086E70E94F301812F8A95F1F780910701EA
:100340000E94F301812F8A95F1F7809108010E94A4
:10035000F301812F8A95F1F782E60E94F301812F44
:100360008A95F1F7809109010E94F301812F8A9506
:10037000F1F780910A010E94F301812F8A95F1F72C
:1003800088E60E94F301812F8A95F1F780910B0195
:100390000E94F301812F8A95F1F78DE60E94F30107
:1003A000812F8A95F1F780910C010E94F301812F32
:1003B0008A95F1F783E70E94F301812F8A95F1F77F
:1003C00080910D010E94F301812F8A95F1F75F9AC8
:1003D00074CE84B18C6284B924982C9A82E58CBD49
:1003E0008DB58EB508958EBD0DB407FEFDCF089571
:1003F00080E184B980EC8CBD08950DB407FEFDCF7B
:080400008EB50895F894FFCFBA
:0E04080002030405060707080809090A0B0C81
:00000001FF
