:100000000C9434000C9446000C9446000C9446006A
:100010000C9446000C9446000C9446000C94460048
:100020000C9446000C9446000C9446000C94460038
:100030000C9446000C9446000C9446000C94460028
:100040000C9446000C9446000C9446000C94460018
:100050000C9446000C9446000C9446000C94460008
:100060000C9446000C94460011241FBECFEFD4E040
:10007000DEBFCDBF11E0A0E0B1E001C01D92AA300B
:10008000B107E1F70E9448000C94D4000C940000E2
:10009000CF93DF9383E390E00E9472007894C8ECE2
:1000A000D0E088E70E94810080E197E2FE0131976D
:1000B000F1F70197D9F7F5CF8CE284B982E58CBDD1
:1000C0008DB58EB508958EBD0DB407FEFDCF089594
:1000D00080E184B980EC8CBD08950DB407FEFDCF9E
:1000E0008EB508959093C5008093C400E1ECF0E0D4
:1000F00088E1808386E08093C2008081806880836D
:100100000895982F8091C00085FFFCCF9093C60082
:1001100008958091C00087FFFCCF8091C6000895AC
:1001200002C08091C6008091C00087FDFACF08957B
:100130001F920F920FB60F9211248F939F93EF93FC
:10014000FF938091C00087FFFCCF80910001883031
:1001500011F41092000180910001E82FF0E09091DD
:10016000C600EE5FFE4F90838F5F80930001FF918A
:10017000EF919F918F910F900FBE0F901F90189548
:100180001F920F920FB60F9211240F900FBE0F9077
:100190001F9018951F920F920FB60F9211240F9077
:0C01A0000FBE0F901F901895F894FFCF31
:00000001FF
