:100000000C9434000C9451000C9451000C94510049
:100010000C9451000C9451000C9451000C9451001C
:100020000C9451000C9451000C9451000C9451000C
:100030000C9451000C9451000C9451000C945100FC
:100040000C9451000C94C0000C9451000C9451007D
:100050000C9451000C9451000C9451000C945100DC
:100060000C9451000C94510011241FBECFEFD4E02A
:10007000DEBFCDBF11E0A0E0B1E0ECE3F2E102C0F1
:1000800005900D92AE3CB107D9F711E0AEECB1E0AE
:1000900001C01D92AE3DB107E1F70E9453000C94E0
:1000A0001C090C940000CF93DF930E94B40083E3FB
:1000B00090E00E94E701789480ED97E028EC30E032
:1000C000F9013197F1F70197D9F70E94B00288E85A
:1000D00093E128EC30E0F9013197F1F70197D9F776
:1000E000C8ECD0E00E94AB030E940D040E94AB0359
:1000F00080E091E00E9409020E949C060E94150681
:100100000E948E058FE091E00E9409020E945F0527
:100110008FE191E00E9409020E9423070E94AB0335
:1001200080E391E00E9409020E9402050E94AB0454
:100130000E947A048CE391E00E9409020E94330439
:1001400088EE93E0FE013197F1F70197D9F7CACF16
:100150008CE284B982E58CBD8DB58EB508958EBDD7
:100160000DB407FEFDCF089580E184B980EC8CBD0D
:100170008DB58EB508950DB407FEFDCF8EB50895EB
:100180001F920F920FB60F9211242F933F934F930C
:100190005F938F939F939EB58091CE01882309F042
:1001A0004FC0983721F481E08093CE0106C0993783
:1001B00039F481E08093CE0182E08093CF01FCC0CE
:1001C0009A3729F481E08093CE0183E0F6CF9C3604
:1001D00029F481E08093CE0184E0EFCF923729F4B7
:1001E00081E08093CE0185E0E8CF913629F482E06A
:1001F0008093CE0186E0E1CF963729F482E08093A8
:10020000CE0187E0DACF923629F482E08093CE01E6
:1002100088E0D3CF983629F481E08093CE0189E03D
:10022000CCCF9D3629F481E08093CE018AE0C5CF02
:10023000933709F0BDC081E08093CE018BE0BDCF44
:100240008091CE01813009F06CC08091CF01813066
:1002500021F48EB580934B01ABC08091CF018230E9
:1002600021F48EB580934C01A3C08091CF018330DF
:1002700021F48EB580934D019BC08091CF018430D5
:1002800021F48EB580934F0193C08091CF018530CA
:1002900021F48EB580934E018BC08091CF018630C2
:1002A00061F480915001909151012EB5820F911D02
:1002B00090935101809350017BC08091CF01873092
:1002C00061F480915201909153012EB5820F911DDE
:1002D00090935301809352016BC08091CF0188307D
:1002E00039F4909154018EB5890F8093540160C008
:1002F0008091CF01893021F48EB58093550158C08B
:100300008091CF018A3021F48EB58093560150C080
:100310008091CF018B3009F04BC08EB5809357018F
:1003200047C08091CE01823009F042C03091CF01A8
:10033000363091F4109251011092500140915001C9
:10034000509151012EB5922F80E0840F951F90930C
:1003500051018093500115C03091CF013730B9F46D
:100360001092530110925201409152015091530149
:100370002EB5922F80E0840F951F909353018093A8
:10038000520181E08093CE013093CF0115C090914E
:10039000CF01983069F4109254018EB580915401C8
:1003A0008093540181E08093CE019093CF0104C0EB
:1003B0001092CE011092CF019F918F915F914F913A
:1003C0003F912F910F900FBE0F901F901895909313
:1003D000C5008093C40088E18093C10084E38093CA
:1003E000C2000895982F8091C00085FFFCCF9093A4
:1003F000C60008958091C00087FFFCCF8091C600A1
:10040000089502C08091C6008091C00087FDFACF98
:1004100008959C01DC010D900020E9F71197A81BBD
:10042000B90B90E00AC0E20FF31F40818091C00039
:1004300085FFFCCF9F5F4093C600E92FF0E0EA17ED
:10044000FB0788F3089588E10E94F20108958BE18B
:100450000E94F20185E40E94F20108958BE10E945E
:10046000F20184E40E94F20108958BE10E94F201FE
:1004700082E40E94F20108951F93182F8BE10E94DD
:10048000F20183E20E94F201113011F481E609C009
:10049000123011F482E605C0133011F483E601C076
:1004A00084E60E94F2011F910895AF92BF92CF920D
:1004B000DF92EF92FF920F931F93182FF62ED42EF8
:1004C000B22E8BE10E94F2018FE20E94F20184E3DE
:1004D0000E94F201812F805D0E94F2018F2D805DCC
:1004E0000E94F2018D2D805D0E94F2018B2D805DB6
:1004F0000E94F2018CE20E94F201802F805D0E9436
:10050000F2018E2D805D0E94F2018C2D805D0E9493
:10051000F2018A2D805D0E94F2018CE20E94F201BC
:1005200087E60E94F2011F910F91FF90EF90DF90FC
:10053000CF90BF90AF9008958BE10E94F20183E2CB
:100540000E94F20183E30E94F20108958BE10E9470
:10055000F20183E20E94F20185E30E94F201089514
:100560008BE10E94F20183E40E94F20108958BE185
:100570000E94F2018BE50E94F20182E30E94F201E7
:1005800085E30E94F2018DE60E94F20108958BE15D
:100590000E94F2018BE50E94F20185E30E94F201C4
:1005A0008DE60E94F20108958BE10E94F2018BE535
:1005B0000E94F20182E30E94F20187E30E94F201AD
:1005C0008DE60E94F20108958BE10E94F2018BE515
:1005D0000E94F20187E30E94F2018DE60E94F2017F
:1005E00008958BE10E94F2018BE50E94F20180E305
:1005F0000E94F2018DE60E94F20108958BE10E94B3
:10060000F2018BE50E94F20182E30E94F20180E395
:100610000E94F2018CE60E94F20108958BE10E9493
:10062000F2018BE50E94F20182E30E94F20180E375
:100630000E94F20188E60E94F20108958BE10E9477
:10064000F20188E30E94F20108958BE10E94F20119
:1006500087E30E94F20108950F931F93082F162F2E
:100660008BE10E94F2018BE50E94F201802F6AE08B
:100670000E94E908805D0E94F201802F6AE00E94DA
:10068000E908892F805D0E94F2018BE30E94F2014C
:10069000812F64E60E94E908805D0E94F201812FAB
:1006A0006AE00E94E9080E94E908892F805D0E94A3
:1006B000F201812F6AE00E94E908892F805D0E9483
:1006C000F20182E50E94F2011F910F9108951F939C
:1006D000182F8BE10E94F2018BE50E94F201812F1D
:1006E000805D0E94F20184E40E94F2011F9108954E
:1006F0001F93182F8BE10E94F2018BE50E94F201FB
:10070000812F805D0E94F20183E40E94F2011F911B
:1007100008951F93182F8BE10E94F2018BE50E9430
:10072000F201812F805D0E94F20182E40E94F201B9
:100730001F9108951F93182F8BE10E94F2018BE502
:100740000E94F201812F805D0E94F20181E40E94EB
:10075000F2011F9108958BE10E94F2018BE50E9446
:10076000F20188E40E94F20108950F931F93109202
:10077000D2011092D3018BE10E94F2018BE50E941D
:10078000F20186E30E94F2018EE60E94F2010E94CD
:10079000FA010E94FA011091D2010E94FA01105E42
:1007A0000AE0809FC0011124180F1093D20110910C
:1007B000D2010E94FA011053180F1093D2010E9427
:1007C000FA011091D3010E94FA01105C94E6899F0E
:1007D000C0011124180F1093D3011091D3010E946E
:1007E000FA01105E809FC0011124180F1093D301ED
:1007F0001091D3010E94FA011053180F1093D301E6
:100800000E94FA01823521F481E08093D40102C074
:100810001092D4011F910F9108958091D50164E643
:100820000E94E9086AE00E94E908892F805D0E9421
:10083000F2018091D5016AE00E94E9080E94E9086E
:10084000892F805D0E94F2018091D5016AE00E94AB
:10085000E908892F805D0E94F2018091D5018F5FA8
:100860008093D501089588E591E00E940902809166
:1008700055016AE00E94E9080E94E908892F805D1D
:100880000E94F201809155016AE00E94E908892FD7
:10089000805D0E94F2018AE30E94F201809156017C
:1008A0006AE00E94E9080E94E908892F805D0E94A1
:1008B000F201809156016AE00E94E908892F805D6B
:1008C0000E94F2018AE30E94F201809157016AE0DE
:1008D0000E94E9080E94E908892F805D0E94F201C8
:1008E000809157016AE00E94E908892F805D0E948B
:1008F000F201089580E691E00E940902809154017E
:1009000080E30E94F2018091540164E60E94E908AC
:100910006AE00E94E908892F805D0E94F2018091BF
:1009200054016AE00E94E9080E94E908892F805D6D
:100930000E94F2018EE20E94F201809154016AE06D
:100940000E94E908892F805D0E94F2018BE691E008
:100950000E94090208958FE691E00E9409028091A9
:1009600052019091530160E177E20E94F508CB01BA
:100970006AE070E00E94F508805D0E94F2018091BB
:1009800052019091530168EE73E00E94F508CB018B
:100990006AE070E00E94F508805D0E94F20180919B
:1009A00052019091530164E670E00E94F508CB017A
:1009B0006AE070E00E94F508805D0E94F20180917B
:1009C0005201909153016AE070E00E94F508CB015A
:1009D0006AE070E00E94F508805D0E94F2018EE2FC
:1009E0000E94F20180915201909153016AE070E0FF
:1009F0000E94F508805D0E94F2018AE791E00E9462
:100A0000090208958FE791E00E9409028091500148
:100A10009091510197FF03C08DE20E94F2018091F5
:100A200050019091510160E177E20E940909CB01E8
:100A30006AE070E00E940909805D0E94F2018091E5
:100A400050019091510168EE73E00E940909CB01B9
:100A50006AE070E00E940909805D0E94F2018091C5
:100A600050019091510164E670E00E940909CB01A8
:100A70006AE070E00E940909805D0E94F2018091A5
:100A80005001909151016AE070E00E940909CB0188
:100A90006AE070E00E940909805D0E94F201809185
:100AA0005001909151016AE070E00E940909805D57
:100AB0000E94F2018AE891E00E94090208951F93C2
:100AC0008EE891E00E94090280914E01882319F47A
:100AD00087E991E01FC080914E0114EB181B812F14
:100AE00064E60E94E908805D0E94F201812F6AE0BD
:100AF0000E94E9080E94E908892F805D0E94F201A6
:100B0000812F6AE00E94E908892F805D0E94F2012E
:100B10008EE991E00E9409021F910895CF93DF931F
:100B200082EA91E00E94090280914D01882319F424
:100B300087E991E075C080914D01873D28F08EE3F3
:100B40000E94F2018DE208C080914D01883238F494
:100B50008CE30E94F2018BE2C8E6D1E03CC08091B8
:100B60004D0187FF1CC060914D0170E060587040DE
:100B7000882777FD8095982F0E94FA0720E030E0C3
:100B800040EC51E40E94640720E030E048EC52E47D
:100B90000E9486080E94CC07EB018DE21CC02091C8
:100BA0004D0160E870E0621B7109882777FD809530
:100BB000982F0E94FA0720E030E040EC51E40E94B8
:100BC000640720E030E048EC52E40E9486080E946E
:100BD000CC07EB018BE20E94F201CE0164E670E0EB
:100BE0000E94F508862F805D0E94F2018EE20E942D
:100BF000F201CE016AE070E00E94F508CB016AE0E4
:100C000070E00E94F508805D0E94F201CE016AE06A
:100C100070E00E94F508805D0E94F2018BEA91E08D
:100C20000E940902DF91CF910895CF93DF938EEA5E
:100C300091E00E94090280914C01882319F487E910
:100C400091E075C080914C01873D28F08EE30E94B1
:100C5000F2018DE208C080914C01883238F48CE3B7
:100C60000E94F2018BE2C8E6D1E03CC080914C01C9
:100C700087FF1CC060914C0170E06058704088276D
:100C800077FD8095982F0E94FA0720E030E040EC35
:100C900051E40E94640720E030E048EC52E40E94F6
:100CA00086080E94CC07EB018DE21CC020914C010C
:100CB00060E870E0621B7109882777FD8095982FA6
:100CC0000E94FA0720E030E040EC51E40E94640703
:100CD00020E030E048EC52E40E9486080E94CC07F5
:100CE000EB018BE20E94F201CE0164E670E00E940B
:100CF000F508862F805D0E94F2018EE20E94F201CB
:100D0000CE016AE070E00E94F508CB016AE070E075
:100D10000E94F508805D0E94F201CE016AE070E059
:100D20000E94F508805D0E94F2018BEA91E00E942A
:100D30000902DF91CF910895CF93DF9387EB91E084
:100D40000E94090280914B01882319F487E991E000
:100D500075C080914B01873D28F08EE30E94F2011F
:100D60008DE208C080914B01883238F48CE30E94F8
:100D7000F2018BE2C8E6D1E03CC080914B0187FFD5
:100D80001CC060914B0170E060587040882777FD6F
:100D90008095982F0E94FA0720E030E040EC51E463
:100DA0000E94640720E030E048EC52E40E9486088C
:100DB0000E94CC07EB018DE21CC020914B0160E842
:100DC00070E0621B7109882777FD8095982F0E943B
:100DD000FA0720E030E040EC51E40E94640720E094
:100DE00030E048EC52E40E9486080E94CC07EB01F8
:100DF0008BE20E94F201CE0164E670E00E94F508E9
:100E0000862F805D0E94F2018EE20E94F201CE01E7
:100E10006AE070E00E94F508CB016AE070E00E9491
:100E2000F508805D0E94F201CE016AE070E00E9448
:100E3000F508805D0E94F2018BEA91E00E940902B0
:100E4000DF91CF91089580EC91E00E94090280919A
:100E50004F01882319F487E991E033C080914F0155
:100E6000893C10F081E00DC080914F01873910F06E
:100E700082E007C080914F01853610F083E001C009
:100E800084E00E943C0280914F0164E60E94E908E0
:100E9000805D0E94F20180914F016AE00E94E908A2
:100EA0000E94E908892F805D0E94F20180914F0124
:100EB0006AE00E94E908892F805D0E94F20189ECB6
:100EC00091E00E94090208950CD0E6C0DED040F007
:100ED000D5D030F021F45F3F19F0C7C0511110C1D7
:100EE000CAC0EBD098F39923C9F35523B1F3951BEE
:100EF000550BBB27AA2762177307840738F09F5F3B
:100F00005F4F220F331F441FAA1FA9F333D00E2EA9
:100F10003AF0E0E830D091505040E695001CCAF716
:100F200029D0FE2F27D0660F771F881FBB1F2617DB
:100F300037074807AB07B0E809F0BB0B802DBF01AE
:100F4000FF2793585F4F2AF09E3F510568F08DC0F0
:100F5000D7C05F3FECF3983EDCF3869577956795B5
:100F6000B795F7959F5FC9F7880F911D969587955F
:100F700097F90895E1E0660F771F881FBB1F62177E
:100F800073078407BA0720F0621B730B840BBA0B3C
:100F9000EE1F88F7E095089598D088F09F5790F05D
:100FA000B92F9927B751A0F0D1F0660F771F881F8E
:100FB000991F1AF0BA95C9F712C0B13081F09FD0CD
:100FC000B1E008959CC0672F782F8827B85F39F06B
:100FD000B93FCCF3869577956795B395D9F73EF4ED
:100FE00090958095709561957F4F8F4F9F4F089595
:100FF000E89409C097FB3EF49095809570956195B3
:101000007F4F8F4F9F4F9923A9F0F92F96E9BB2768
:101010009395F695879577956795B795F111F8CFE4
:10102000FAF4BB0F11F460FF1BC06F5F7F4F8F4F4F
:101030009F4F16C0882311F096E911C0772321F045
:101040009EE8872F762F05C0662371F096E8862FDD
:1010500070E060E02AF09A95660F771F881FDAF734
:10106000880F9695879597F9089597F99F6780E877
:1010700070E060E008959FEF80EC089500240A94EA
:101080001616170618060906089500240A94121663
:101090001306140605060895092E0394000C11F496
:1010A000882352F0BB0F40F4BF2B11F460FF04C043
:1010B0006F5F7F4F8F4F9F4F089557FD9058440F9C
:1010C000551F59F05F3F71F04795880F97FB991FA7
:1010D00061F09F3F79F08795089512161306140664
:1010E000551FF2CF4695F1DF08C0161617061806F1
:1010F000991FF1CF86957105610508940895E894CC
:10110000BB2766277727CB0197F908950BD0C4CF6B
:10111000B5DF28F0BADF18F0952309F0A6CFABCFE2
:101120001124EECFCADFA0F3959FD1F3950F50E0C5
:10113000551F629FF001729FBB27F00DB11D639F89
:10114000AA27F00DB11DAA1F649F6627B00DA11D2F
:10115000661F829F2227B00DA11D621F739FB00DD5
:10116000A11D621F839FA00D611D221F749F332745
:10117000A00D611D231F849F600D211D822F762FDE
:101180006A2F11249F5750408AF0E1F088234AF0DB
:10119000EE0FFF1FBB1F661F771F881F9150504027
:1011A000A9F79E3F510570F060CFAACF5F3FECF3E7
:1011B000983EDCF3869577956795B795F795E79513
:1011C0009F5FC1F7FE2B880F911D9695879597F924
:1011D0000895991B79E004C0991F961708F0961B93
:1011E000881F7A95C9F780950895AA1BBB1B51E10A
:1011F00007C0AA1FBB1FA617B70710F0A61BB70B87
:10120000881F991F5A95A9F780959095BC01CD012B
:10121000089597FB092E07260AD077FD04D0E5DF55
:1012200006D000201AF4709561957F4F0895F6F767
:0C123000909581959F4F0895F894FFCF92
:10123C0009416363656C65726F6D65746572000A54
:10124C000D0952616E67652046696E646572000A0D
:10125C000D09416D6269656E74204C696768740094
:10126C000909094750532044617461000A0A0D09A9
:10127C0009094750532054696D650064809C0A0A23
:10128C003930D2047B0C22380A0D090909202000C0
:10129C000A0D0909092020423D2000646567000AF7
:1012AC000D0909092020533D20006B6D6820000AB0
:1012BC000D0909092020413D20006D2020000A0D58
:1012CC00092020523D20004E4F2056414C00636DAA
:1012DC0020000A0D0920205A3D20004720000A0D4D
:1012EC00092020593D20000A0D092020583D2000DE
:0E12FC000A0D0920204C3D200020202000007B
:00000001FF
