:100000000C9434000C9451000C9451000C94510049
:100010000C9451000C9451000C9451000C9451001C
:100020000C9451000C9451000C9451000C9451000C
:100030000C9451000C9451000C9451000C945100FC
:100040000C9451000C9482000C9451000C945100BB
:100050000C9451000C9451000C9451000C945100DC
:100060000C9451000C94510011241FBECFEFD4E02A
:10007000DEBFCDBF11E0A0E0B1E0EAE4F7E002C0EE
:1000800005900D92A230B107D9F711E0A2E0B1E0DE
:1000900001C01D92AD31B107E1F70E9453000C94ED
:1000A000A3030C940000CF93DF930E94760083E3B8
:1000B00090E00E9486017894C8ECD0E08091020123
:1000C0000E94960188E893E1FE013197F1F70197CC
:1000D000D9F7F4CF8CE284B982E58CBD8DB58EB5AD
:1000E00008958EBD0DB407FEFDCF089580E184B95B
:1000F00080EC8CBD8DB58EB508950DB407FEFDCF97
:100100008EB508951F920F920FB60F9211242F9360
:100110003F938F939F939EB580910E01882309F0A2
:100120004FC0983721F481E080930E0106C09937C3
:1001300039F481E080930E0182E080930F01DDC0ED
:100140009A3729F481E080930E0183E0F6CF9C3644
:1001500029F481E080930E0184E0EFCF923729F4F7
:1001600081E080930E0185E0E8CF913629F482E0AA
:1001700080930E0186E0E1CF963729F482E08093E8
:100180000E0187E0DACF923629F482E080930E01E7
:1001900088E0D3CF983629F481E080930E0189E07E
:1001A000CCCF9D3629F481E080930E018AE0C5CF43
:1001B000933709F09EC081E080930E018BE0BDCFA4
:1001C00080910E01813009F06BC080910F01813068
:1001D00021F48EB5809302018CC080910F01823092
:1001E00021F48EB58093030184C080910F01833088
:1001F00021F48EB5809304017CC080910F0184307E
:1002000021F48EB58093060174C080910F01853072
:1002100021F48EB5809305016CC080910F0186306A
:1002200061F480910701909108012EB5820F911D14
:1002300090930801809307015CC080910F01873083
:1002400061F48091090190910A012EB5820F911DF0
:1002500090930A01809309014CC080910F0188306E
:1002600039F490910B018EB5890F80930B0141C039
:1002700080910F01893021F48EB58093000139C03F
:1002800080910F018A3021F48EB580930C0131C02A
:1002900080910F018B3069F58EB580930D0129C0D7
:1002A00080910E01823029F590910F01963041F432
:1002B0008EB5382F20E0309308012093070113C03A
:1002C00090910F01973041F48EB5382F20E0309394
:1002D0000A012093090107C090910F01983049F459
:1002E0008EB510920B0181E080930E0190930F0167
:1002F00004C010920E0110920F019F918F913F91B7
:100300002F910F900FBE0F901F9018959093C500DE
:100310008093C40088E18093C100E2ECF0E080812A
:10032000846080838081806380830895982F80918A
:10033000C00085FFFCCF9093C60008958091C00057
:1003400087FFFCCF8091C600089502C08091C6004F
:100350008091C00087FDFACF089588E10E94960140
:1003600008958BE10E94960185E40E94960108950C
:100370008BE10E94960184E40E94960108958BE12E
:100380000E94960182E40E94960108951F93182FFF
:100390008BE10E94960183E20E949601113011F4D4
:1003A00081E609C0123011F482E605C0133011F461
:1003B00083E601C084E60E9496011F910895AF92E2
:1003C000BF92CF92DF92EF92FF920F931F93182F5D
:1003D000F62ED42EB22E8BE10E9496018FE20E945F
:1003E000960184E30E949601812F805D0E94960110
:1003F0008F2D805D0E9496018D2D805D0E9496015B
:100400008B2D805D0E9496018CE20E949601802FC8
:10041000805D0E9496018E2D805D0E9496018C2D3C
:10042000805D0E9496018A2D805D0E9496018CE27B
:100430000E94960187E60E9496011F910F91FF90FE
:10044000EF90DF90CF90BF90AF9008958BE10E9426
:10045000960183E20E94960183E30E94960108952B
:100460008BE10E94960183E20E94960185E30E943F
:10047000960108958BE10E94960183E40E94960103
:1004800008958BE10E9496018BE50E94960182E31C
:100490000E94960185E30E9496018DE60E949601D6
:1004A00008958BE10E9496018BE50E94960185E3F9
:1004B0000E9496018DE60E94960108958BE10E94AC
:1004C00096018BE50E94960182E30E94960187E3E4
:1004D0000E9496018DE60E94960108958BE10E948C
:1004E00096018BE50E94960187E30E9496018DE6B6
:1004F0000E94960108958BE10E9496018BE50E946F
:10050000960180E30E9496018DE60E94960108956F
:100510008BE10E9496018BE50E94960182E30E9486
:10052000960180E30E9496018CE60E949601089550
:100530008BE10E9496018BE50E94960182E30E9466
:10054000960180E30E94960188E60E949601089534
:100550008BE10E94960188E30E94960108958BE149
:100560000E94960187E30E94960108950F931F93BE
:10057000082F162F8BE10E9496018BE50E949601B1
:10058000802F6AE00E949703805D0E949601802F71
:100590006AE00E949703892F805D0E9496018BE399
:1005A0000E949601812F64E60E949703805D0E945D
:1005B0009601812F6AE00E9497030E949703892F7A
:1005C000805D0E949601812F6AE00E949703892F27
:1005D000805D0E94960182E50E9496011F910F9115
:1005E00008951F93182F8BE10E9496018BE50E94BE
:1005F0009601812F805D0E94960184E40E949601FD
:100600001F9108951F93182F8BE10E9496018BE58F
:100610000E949601812F805D0E94960183E40E94D2
:1006200096011F9108951F93182F8BE10E94960148
:100630008BE50E949601812F805D0E94960182E4E5
:100640000E9496011F9108951F93182F8BE10E941D
:1006500096018BE50E949601812F805D0E94960194
:1006600081E40E9496011F9108958BE10E949601FA
:100670008BE50E94960188E40E94960108950F93ED
:100680001F9310921201109213018BE10E949601A8
:100690008BE50E94960186E30E9496018EE60E94F9
:1006A00096010E949E010E949E01109112010E94DB
:1006B0009E01105E0AE0809FC0011124180F109364
:1006C0001201109112010E949E011053180F1093F5
:1006D00012010E949E01109113010E949E01105C64
:1006E00094E6899FC0011124180F109313011091F3
:1006F00013010E949E01105E809FC0011124180FFB
:1007000010931301109113010E949E011053180FB2
:10071000109313010E949E01823521F481E08093A1
:10072000140102C0109214011F910F910895991B9A
:1007300079E004C0991F961708F0961B881F7A95D8
:0A074000C9F780950895F894FFCFE3
:02074A000C00A1
:00000001FF
