:100000000EC01DC01CC01BC01AC019C018C017C02C
:1000100034C015C042C013C012C04AC053C011241E
:100020001FBECFE5D2E0DEBFCDBF10E0A0E6B0E05E
:1000300001C01D92A336B107E1F702D0CEC0E0CFD8
:1000400011D07BD07894B3990AC080E08FD0BDD016
:100050008235C9F7809160008FD0BAD0F4CF81E0AB
:1000600085D0F1CF87B187B93D9A399A379A339ABB
:1000700086B1836086B9369A08951F920F920FB6A3
:100080000F9211248F9385B180936000369A8F91DF
:100090000F900FBE0F901F9018951F920F920FB6E2
:1000A0000F921124689A0F900FBE0F901F90189511
:1000B0001F920F920FB60F9211240F900FBE0F9048
:1000C0001F9018951F920F920FB60F9211248F93C5
:1000D0008091610080FF03C089B78F7E89BF80E473
:1000E0008EB9809161008260809361008FB18093AE
:1000F00062008F910F900FBE0F901F90189587B3DD
:10010000866087BBB898C09A8AE58DB982E08ABDBF
:1001100083BF83E089BD809161008160809361002D
:10012000809161008D7F80936100809161008B7F61
:1001300080936100109262000895B99AB89888B3CC
:100140008D6088BB88E58DB9809161008E7F80933A
:100150006100809161008D7F8093610080916100DA
:100160008B7F80936100109262000895882311F4C0
:10017000B99A0895B9980895282F8EB190E08F709C
:100180009070892B31F080916100846080936100D0
:100190000895809161008D7F80936100809161005E
:1001A0008B7F809361002FB98091610080FF06C032
:1001B00088B7806188BF89B7806189BF80916100FD
:1001C0008695869580958170089580916200089546
:0E01D0008091610081FFFCCF0895F894FFCF6D
:00000001FF
