:1000000010C028C027C026C025C024C023C022C0DD
:1000100021C070C01FC01EC01DC03FC01BC075C026
:100020007EC011241FBECFEDCDBF10E0A0E6B0E032
:10003000EEE2F2E002C005900D92A436B107D9F7C6
:1000400010E0A4E6B0E001C01D92A636B107E1F7CA
:1000500002D0EBC0D5CF14D09DD07894DED08835B7
:1000600019F48091600009C0893519F4809161000C
:1000700004C08A3599F780916200A5D0D1D0EECF27
:1000800087B187B91C9A87B1807C87B9379A339A30
:1000900086B1836086B9369A08951F920F920FB683
:1000A0000F9211248F939F9387B190E08F7390707C
:1000B000892B39F485B18093600087B1807C8160A1
:1000C00010C087B18F73813039F485B1809361009E
:1000D00087B1807C826005C085B18093620087B162
:1000E000807C87B9369A9F918F910F900FBE0F90A9
:1000F0001F9018951F920F920FB60F921124689AB5
:100100000F900FBE0F901F9018951F920F920FB671
:100110000F9211240F900FBE0F901F9018951F92F1
:100120000F920FB60F9211248F938091640080FF7D
:1001300003C089B78D7F89BF80E48EB98091640048
:100140008260809364008FB1809365008F910F90DF
:100150000FBE0F901F9018958AB380638ABBD69804
:10016000DE9A8AE58DB982E080BF83BF83E086BFD7
:1001700080916400816080936400809164008D7F31
:1001800080936400809164008B7F80936400109260
:1001900065000895D59AD6988BB380658BBB88E5AA
:1001A0008DB9809164008E7F80936400809164009B
:1001B0008D7F80936400809164008B7F80936400C6
:1001C000109265000895282F8EB190E08F70907086
:1001D000892B39F08091640084608093640080E012
:1001E0000895809164008D7F809364008091640005
:1001F0008B7F809364002FB98091640080FF06C0DC
:1002000088B7826088BF89B7826089BF80916400A7
:1002100086958695809581700895809165000895F2
:0E0220008091640081FFFCCF0895F894FFCF19
:04022E000A141E0090
:00000001FF
