:1000000010C02AC029C028C027C026C025C024C0CF
:1000100023C061C021C020C01FC030C01DC0E4C0CB
:1000200065C011241FBECFE5D1E0DEBFCDBF10E01B
:10003000A0E6B0E0E2E8F2E002C005900D92A4363E
:10004000B107D9F710E0A4E6B0E001C01D92A636D2
:10005000B107E1F702D013C1D3CF03D082D0789497
:10006000FFCF87B187B91C9A87B1807C87B9379A4F
:10007000339A86B1836086B9369A08951F920F929B
:100080000FB60F9211248F939F9387B190E08F73D7
:100090009070892B39F485B18093600087B1807CA2
:1000A000816010C087B18F73813039F485B180933E
:1000B000610087B1807C826005C085B18093620059
:1000C00087B1807C87B9369A9F918F910F900FBE30
:1000D0000F901F9018951F920F920FB60F92112438
:1000E000689A0F900FBE0F901F9018951F920F9255
:1000F0000FB60F9211248F938091640080FF03C08C
:1001000089B78D7F89BF80E48EB980916400826059
:10011000809364008FB1809365008F910F900FBE24
:100120000F901F9018958AB380638ABBD698DE9A89
:100130008AE58DB982E080BF83BF83E086BF80916E
:100140006400816080936400809164008D7F80935F
:100150006400809164008B7F80936400109265003E
:100160000895D59AD6988BB3806D8BBB88E58DB9F1
:10017000809164008E7F80936400809164008D7F05
:1001800080936400809164008B7F80936400109260
:1001900065000895282F8EB190E08F709070892BA4
:1001A00039F08091640084608093640080E0089559
:1001B000809164008D7F80936400809164008B7FC8
:1001C000809364002FB98091640080FF06C088B7D7
:1001D000826088BF89B7826089BF809164008695FC
:1001E00086958095817008951F920F920FB60F9299
:1001F00011242F933F934F935F936F937F938F932C
:100200009F93AF93BF93EF93FF9380916500CF9936
:100210001DC0883541F480916000BCDF809164008E
:1002200081FFFCCF13C0893541F480916100B2DFBA
:100230008091640081FFFCCF09C08A3539F4809138
:100240006200A8DF8091640081FFFCCFFF91EF91F5
:10025000BF91AF919F918F917F916F915F914F91DE
:100260003F912F910F900FBE0F901F901895809186
:10027000650008958091640081FFFCCF0895F89493
:02028000FFCFAE
:040282000A141E003C
:00000001FF
