:1000000010C01DC01CC01BC01AC019C018C017C02A
:1000100016C060C014C013C012C02FC010C065C08D
:100020006EC011241FBECFEDCDBF10E0A0E6B0E042
:1000300001C01D92A536B107E1F702D0E6C0E0CFBE
:1000400011D098D07894D9D0883511F0893519F429
:100050008091600004C08A35B1F780916200A3D01E
:10006000CFD0F1CF87B187B93C9A399A379A339A72
:1000700086B1836086B9369A08951F920F920FB6A3
:100080000F9211248F939F9387B190E08F7090709F
:10009000892B39F485B18093600087B1807F8160BE
:1000A00010C087B18F70813039F485B180936100C1
:1000B00087B1807F826005C085B18093620087B17F
:1000C000807F87B9369A9F918F910F900FBE0F90C6
:1000D0001F9018951F920F920FB60F921124689AD5
:1000E0000F900FBE0F901F9018951F920F920FB692
:1000F0000F9211240F900FBE0F901F9018951F9212
:100100000F920FB60F9211248F938091630080FF9E
:1001100003C089B78D7F89BF80E48EB98091630069
:100120008260809363008FB1809364008F910F9001
:100130000FBE0F901F9018958AB380638ABBD69824
:10014000DE9A8AE58DB982E080BF83BF83E086BFF7
:1001500080916300816080936300809163008D7F54
:1001600080936300809163008B7F80936300109283
:1001700064000895D59AD6988BB380658BBB88E5CB
:100180008DB9809163008E7F8093630080916300BE
:100190008D7F80936300809163008B7F80936300E9
:1001A000109264000895282F8EB190E08F709070A7
:1001B000892B39F08091630084608093630080E034
:1001C0000895809163008D7F809363008091630028
:1001D0008B7F809363002FB98091630080FF06C0FE
:1001E00088B7826088BF89B7826089BF80916300C9
:1001F0008695869580958170089580916400089514
:0E0200008091630081FFFCCF0895F894FFCF3A
:00000001FF
