:100000000EC01DC01CC01BC01AC019C018C017C02C
:1000100035C015C052C013C012C05AC063C01124ED
:100020001FBECFE5D2E0DEBFCDBF10E0A0E6B0E05E
:1000300001C01D92A436B107E1F702D0D8C0E0CFCD
:100040001F9311D08AD07894CAD0182FCBD01835EE
:1000500019F48091600004C01935B1F780916100F6
:1000600095D0C0D0F1CF87B187B93D9A399A379AE8
:10007000339A86B1836086B9369A08951F920F929B
:100080000FB60F9211248F9387B18F70823039F49D
:1000900085B18093600087B1807F836006C085B1A1
:1000A0008093610087B1807F826087B9369A8F9193
:1000B0000F900FBE0F901F9018951F920F920FB6C2
:1000C0000F921124689A0F900FBE0F901F901895F1
:1000D0001F920F920FB60F9211240F900FBE0F9028
:1000E0001F9018951F920F920FB60F9211248F93A5
:1000F0008091620080FF03C089B78F7E89BF80E452
:100100008EB9809162008260809362008FB180938B
:1001100063008F910F900FBE0F901F90189587B3BB
:10012000866087BBB898C09A8AE58DB982E08ABD9F
:1001300083BF83E089BD809162008160809362000B
:10014000809162008D7F80936200809162008B7F3E
:1001500080936200109263000895B99AB89888B3AA
:10016000856088BB88E58DB9809162008E7F809321
:100170006200809162008D7F8093620080916200B6
:100180008B7F80936200109263000895282F8EB1B8
:1001900090E08F709070892B31F0809162008460C4
:1001A000809362000895809162008D7F8093620049
:1001B000809162008B7F809362002FB980916200F2
:1001C00080FF06C088B7806188BF89B7806189BF1A
:1001D00080916200869586958095817008958091C2
:1001E000630008958091620081FFFCCF0895F89428
:0201F000FFCF3F
:00000001FF
