:100000000EC01DC01CC01BC01AC019C018C017C02C
:10001000C9C015C022C013C012C02AC033C01124E9
:100020001FBECFE5D2E0DEBFCDBF10E0A0E6B0E05E
:1000300001C01D92A336B107E1F702D0C3C0E0CFE3
:10004000A6D05BD078949BD0B399FDCF8C34D9F7F0
:10005000809160006BD096D0F6CF1F920F920FB6B2
:100060000F921124689A0F900FBE0F901F90189551
:100070001F920F920FB60F9211240F900FBE0F9088
:100080001F9018951F920F920FB60F9211248F9305
:100090008091610080FF03C089B78F7E89BF80E4B3
:1000A0008EB9809161008260809361008FB18093EE
:1000B00062008F910F900FBE0F901F90189587B31D
:1000C000866087BBB898C09A8AE58DB982E08ABD00
:1000D00083BF83E089BD809161008160809361006E
:1000E000809161008D7F80936100809161008B7FA2
:1000F00080936100109262000895B99AB89888B30D
:100100008D6088BB88E58DB9809161008E7F80937A
:100110006100809161008D7F80936100809161001A
:100120008B7F80936100109262000895282F8EB11A
:1001300090E08F709070892B31F080916100846025
:10014000809361000895809161008D7F80936100AC
:10015000809161008B7F809361002FB98091610055
:1001600080FF06C088B7806188BF89B7806189BF7A
:100170008091610086958695809581700895809123
:10018000620008958091610081FFFCCF089587B1DE
:1001900087B93D9A399A379A339A86B1836086B97E
:1001A000369A08951F920F920FB60F9211248F93D3
:1001B00085B180936000369A8F910F900FBE0F909B
:0801C0001F901895F894FFCF81
:00000001FF
